{
  "contractName": "Records",
  "abi": [
    {
      "inputs": [],
      "stateMutability": "nonpayable",
      "type": "constructor"
    },
    {
      "inputs": [],
      "name": "medicalRecord",
      "outputs": [
        {
          "internalType": "string",
          "name": "",
          "type": "string"
        }
      ],
      "stateMutability": "view",
      "type": "function",
      "constant": true
    },
    {
      "inputs": [],
      "name": "wallet",
      "outputs": [
        {
          "internalType": "string",
          "name": "",
          "type": "string"
        }
      ],
      "stateMutability": "view",
      "type": "function",
      "constant": true
    },
    {
      "inputs": [
        {
          "internalType": "string",
          "name": "newMedicalRecord",
          "type": "string"
        }
      ],
      "name": "setMedicalRecord",
      "outputs": [],
      "stateMutability": "nonpayable",
      "type": "function"
    },
    {
      "inputs": [],
      "name": "getInfo",
      "outputs": [
        {
          "internalType": "string",
          "name": "",
          "type": "string"
        }
      ],
      "stateMutability": "view",
      "type": "function",
      "constant": true
    }
  ],
  "bytecode": "0x608060405234801561001057600080fd5b5060408051602081019182905260009081905261002d9181610033565b50610106565b82805461003f906100cc565b90600052602060002090601f01602090048101928261006157600085556100a7565b82601f1061007a57805160ff19168380011785556100a7565b828001600101855582156100a7579182015b828111156100a757825182559160200191906001019061008c565b506100b39291506100b7565b5090565b5b808211156100b357600081556001016100b8565b600181811c908216806100e057607f821691505b60208210810361010057634e487b7160e01b600052602260045260246000fd5b50919050565b6103fd806101156000396000f3fe608060405234801561001057600080fd5b506004361061004c5760003560e01c80631ad2bac214610051578063521eb2731461006f5780635a9b0b8914610077578063e46fb8101461007f575b600080fd5b610059610094565b6040516100669190610271565b60405180910390f35b610059610122565b61005961012f565b61009261008d3660046102dc565b6101c1565b005b600080546100a19061038d565b80601f01602080910402602001604051908101604052809291908181526020018280546100cd9061038d565b801561011a5780601f106100ef5761010080835404028352916020019161011a565b820191906000526020600020905b8154815290600101906020018083116100fd57829003601f168201915b505050505081565b600180546100a19061038d565b60606000805461013e9061038d565b80601f016020809104026020016040519081016040528092919081815260200182805461016a9061038d565b80156101b75780601f1061018c576101008083540402835291602001916101b7565b820191906000526020600020905b81548152906001019060200180831161019a57829003601f168201915b5050505050905090565b80516101d49060009060208401906101d8565b5050565b8280546101e49061038d565b90600052602060002090601f016020900481019282610206576000855561024c565b82601f1061021f57805160ff191683800117855561024c565b8280016001018555821561024c579182015b8281111561024c578251825591602001919060010190610231565b5061025892915061025c565b5090565b5b80821115610258576000815560010161025d565b600060208083528351808285015260005b8181101561029e57858101830151858201604001528201610282565b818111156102b0576000604083870101525b50601f01601f1916929092016040019392505050565b634e487b7160e01b600052604160045260246000fd5b6000602082840312156102ee57600080fd5b813567ffffffffffffffff8082111561030657600080fd5b818401915084601f83011261031a57600080fd5b81358181111561032c5761032c6102c6565b604051601f8201601f19908116603f01168101908382118183101715610354576103546102c6565b8160405282815287602084870101111561036d57600080fd5b826020860160208301376000928101602001929092525095945050505050565b600181811c908216806103a157607f821691505b6020821081036103c157634e487b7160e01b600052602260045260246000fd5b5091905056fea2646970667358221220feb52e23b743cf3746c8f3b1c7b5e80c6aa98790e77830905140a00ccbee040b64736f6c634300080e0033",
  "immutableReferences": {},
  "source": "//SPDX-License-Identifier: MIT\r\npragma solidity ^0.8.11;\r\n\r\nimport \"@openzeppelin/contracts/token/ERC20/ERC20.sol\";\r\n\r\n\r\ncontract Records {\r\n    string public medicalRecord;\r\n\r\n    string public wallet;\r\n\r\n\r\n    constructor(){\r\n        medicalRecord = \"\";\r\n    }\r\n    \r\n    function setMedicalRecord(string memory newMedicalRecord) public {\r\n        medicalRecord = newMedicalRecord;\r\n    } \r\n   \r\n    \r\n    function getInfo() public view returns (string memory){\r\n        return string (medicalRecord);\r\n    }\r\n\r\n   // function getWallet()\r\n\r\n}",
  "sourcePath": "C:\\Users\\emanu\\Desktop\\Contracts\\zencon-contract-examples\\contracts\\medicalRecord.sol",
  "compiler": {
    "name": "solc",
    "version": "0.8.14+commit.80d49f37.Emscripten.clang"
  },
  "schemaVersion": "3.4.4",
  "updatedAt": "2022-06-07T14:12:28.324Z",
  "networkType": "ethereum",
  "devdoc": {
    "kind": "dev",
    "methods": {},
    "version": 1
  },
  "userdoc": {
    "kind": "user",
    "methods": {},
    "version": 1
  }
}